:100000000C949C000C94B5000C94B5000C94B500B5
:100010000C94B5000C94B5000C94B5000C94B5008C
:100020000C94B5000C94B5000C94B5000C94B5007C
:100030000C94B5000C94B5000C94B5000C94B5006C
:100040000C94B5000C94B5000C94B5000C94B5005C
:100050000C94B5000C94B5000C94B5000C94B5004C
:100060000C94B5000C94B5000C94B5000C94B5003C
:100070000C94B5000C94B5000C94B5000C94B5002C
:100080000C94B5000C94B5000C94B5000C94B5001C
:100090000C94B5000C94B5000C94B5000C94B5000C
:1000A0000C94B5000C94B5000C94B5000C94B500FC
:1000B0000C94B5000C94B5000C94B5000C94B500EC
:1000C0000C94B5000C94B5000C94B5000C94B500DC
:1000D0000C94B5000C94B5000C94B5000C94B500CC
:1000E0000C94B500506C6561736520656E74657223
:1000F00020612076616C696420636F6D6D616E6450
:10010000004669726D776172652076322E32004446
:1001100065627567206D6F646520616374697661DF
:10012000746564000A456E746572206120436F6DCA
:100130006D616E643A20000011241FBECFEFD1E242
:10014000DEBFCDBF00E00CBF12E0A0E0B2E0E8E708
:10015000F5E000E00BBF02C007900D92A632B10798
:10016000D9F70E9473020C94BA020C9400000F930A
:100170001F93CF93DF9300D00F92CDB7DEB7898363
:100180009A8300E012E01B821C82F8016081718179
:100190006115710519F482E090E011C089819A819E
:1001A0000E94B102892BA1F48B819C81880F991F39
:1001B000880F991F80509E4FFC01828193810F9080
:1001C0000F900F900F90DF91CF911F910F91089595
:1001D0000C5F1F4F8B819C8101968B839C83D5CFB5
:1001E000CF93DF93CDB7DEB7A3970FB6F894DEBFFA
:1001F0000FBECDBF8AA39BA319A28AA19BA10E9477
:1002000018028D30D1F38A30C1F399A121E0290F72
:1002100029A3FE013196E90FF11D80838AA19BA1DC
:100220000E9418028D3011F08A3079F789A1FE0101
:100230003196E80FF11D1082CE0101960E94B700A1
:10024000A3960FB6F894DEBF0FBECDBFDF91CF915E
:100250000895CF93DF93CDB7DEB72D970FB6F894FF
:10026000DEBF0FBECDBF86ECC82ED12C94ECE92E9C
:10027000F12C01EC10E020EC30E04CE052E063E1C6
:1002800072E03E018FEF681A780AC3010E947B0179
:10029000812CAA24A394CA2CE12C00E020E0B70111
:1002A00040E05BE4C3010E949701830164E271E0D6
:1002B000C8010E945502C8010E94F00081309105DA
:1002C00089F082309105A1F06FE071E0892B61F037
:1002D0009FEF27E883E1915020408040E1F700C084
:1002E0000000E4CF61E071E0C8010E945502F0CF48
:1002F00064EE70E0F9CFCF92DF92EF92FF920F930E
:100300001F93FC016083718342835383248335836D
:1003100006831783E086F186C286D38680E18487D0
:100320001F910F91FF90EF90DF90CF9008958F92E3
:10033000AF92CF92EF920F931F93FC01A681B781EA
:100340008C91213009F048C080688C93A681B781D8
:100350008C91013009F042C080648C93A681B781F2
:1003600081E0E8123DC08C9180628C93A681B781B8
:1003700081E0C81238C08C9180618C93A681B781CE
:1003800081E0A81233C08C9188608C9381E0881240
:1003900030C0A481B5818C9182608C9388E0848781
:1003A000A48500851185B0E09A01AB010E949702F7
:1003B0009B01AC0160E074E284EF90E00E94750262
:1003C00021503109F801318320831F910F91EF9063
:1003D000CF90AF908F9008958F77B7CF8F7BBDCFA1
:1003E0008C918F7DC2CF8C918F7EC7CF8C91877F70
:1003F000CCCF8110D5CFA481B5818C918D7F8C938A
:1004000080E1CDCFDC011496ED91FD91808185FBDB
:10041000882780F90895DC011496ED91FD912081E3
:1004200025FFFDCFDC011A96ED91FD9160830895C3
:10043000DC011496ED91FD91208127FFFDCFDC01B9
:100440001A96ED91FD91808108950C940B020F9303
:100450001F93CF93DF9300D00F92CDB7DEB7898380
:100460009A836B837C830B811C81040F111D8B810C
:100470009C818017910749F40F900F900F900F9077
:10048000DF91CF911F910F91089589819A810E94E8
:1004900002028115D1F3EB81FC816191EB83FC8336
:1004A00089819A810E940B02E2CFCF93DF9300D023
:1004B0000F92CDB7DEB789839A836B837C83EB8100
:1004C000FC816491611541F03196EB83FC83898155
:1004D0009A810E940B02F3CF0F900F900F900F9014
:1004E000DF91CF9108950E942901A1E21A2EAA1B43
:1004F000BB1BFD010DC0AA1FBB1FEE1FFF1FA217D4
:10050000B307E407F50720F0A21BB30BE40BF50BD0
:10051000661F771F881F991F1A9469F76095709559
:10052000809590959B01AC01BD01CF0108950E947B
:10053000A202A59F900DB49F900DA49F800D911DC8
:1005400011240895A29FB001B39FC001A39F700D15
:10055000811D1124911DB29F700D811D1124911DCB
:100560000895FB01DC018D91019080190110D9F3F0
:08057000990B0895F894FFCFE8
:100578001A02000020020100000002002D002E00D7
:100588002C00002D002E002C0001646562756700A8
:060598007072696E740030
:00000001FF
